:020000040800F2
:1000000068140020A10100081B1E0008231C000822
:10001000191E00082F090008E12200080000000056
:100020000000000000000000000000001F1E00088B
:10003000E10C0008000000001D1E0008211E000841
:10004000BB010008BB010008BB010008BB010008A0
:10005000BB010008BB010008BB010008BB01000890
:10006000BB010008BB010008BB010008BB01000880
:10007000BB010008BB010008BB010008BB01000870
:10008000BB010008BB010008BB010008BB01000860
:10009000BB010008BB010008BB010008BB01000850
:1000A000BB010008BB010008BB010008BB01000840
:1000B000BB010008BB010008BB010008BB01000830
:1000C000BB010008BB010008BB010008BB01000820
:1000D000BB010008BB010008BB010008BB01000810
:1000E000BB010008BB010008BB010008BB01000800
:1000F000BB010008BB010008E11E0008BB010008AD
:10010000BB010008BB010008BB010008BB010008DF
:10011000BB010008BB010008BB010008BB010008CF
:10012000BB010008BB010008BB010008BB010008BF
:10013000BB010008BB010008BB010008BB010008AF
:10014000BB010008BB010008BB010008BB0100089F
:10015000BB010008BB010008BB010008BB0100088F
:10016000BB010008BB010008BB010008BB0100087F
:10017000BB010008BB010008BB0100080000000033
:10018000BB010008BB010008DFF810D000F06CFBD9
:1001900000480047A9330008AFF30080681400202E
:1001A0000648804706480047FEE7FEE7FEE7FEE711
:1001B000FEE7FEE7FEE7FEE7FEE7FEE7D11E0008EA
:1001C000890100082DE9F05F0546002092469B4614
:1001D00088460646814640241BE02846414647465D
:1001E000224600F03EFA53465A46C01A914110D3B7
:1001F00011461846224600F025FA2D1A67EB010831
:100200004F4622460120002100F01CFA17EB00099E
:100210004E41201EA4F10104DFDC484631462A4647
:100220004346BDE8F09FD2B201E000F8012B491E21
:10023000FBD270470022F6E710B513460A46044683
:100240001946FFF7F0FF204610BD2DE9FE4F80460E
:1002500081EA0300C00F0C46009021F0004123F01A
:100260000045B8EB0200A94105D240462146904620
:100270001C460B46024623F00040104347D0270D92
:10028000C7F30A00C3F30A510290401A01904028B4
:100290006BDAC3F3130040F4801B0098924620B140
:1002A0000023D2EB030A63EB0B0B01985946C0F114
:1002B0004002504600F0C6F906460D4650465946E3
:1002C000019A00F0DEF910EB08006141002487EA92
:1002D000115284EAE7731A4340D0009A62B3019A3C
:1002E000012A4FEA075215DC001B61EB02014FF0B7
:1002F000004202EA0752CDE90042001C41F580119C
:1003000032462B4600F033FA03B0BDE8F08F40468A
:100310002146F9E7001B61EB0201001C41F5801347
:1003200000185B412018A2F5001747EB030140EAD3
:10033000D570B6196D4111E06D084FEA360645EAF1
:10034000C0754FEA0752001B61EB0201001C41F52A
:10035000801149084FEA30000019514132462B46BE
:1003600003B0BDE8F04F00F0F3B90098012240005F
:100370000023D0EB020263EBE073009821464FEAC2
:10038000E074B8EB000061EB0401E9E783F000439F
:100390005BE781F0004158E72DE9FE4F81EA030455
:1003A00004F0004421F0004100944FF0000B23F0D2
:1003B000004350EA01045ED052EA03045BD0C3F369
:1003C0000A54C1F30A552C44A4F2F3340194A0FB5F
:1003D0000254C1F3130141F48011C3F3130343F436
:1003E000801301FB024400FB034E840A970A44EA8F
:1003F000815447EA8357A4FB076802958D0A05FBE1
:1004000007854FEA932C04FB0C542705029D4FEA05
:10041000065847EA1637B5EB08056EEB070C870E52
:10042000920E47EA811742EA8312A7FB0201B6EB5C
:100430000B0164EB00042B0D43EA0C335E1844EB14
:100440001C50DA465146E7FB0201C5F313044FEA9C
:100450000B3343EA14534FEA0432019C43EA060388
:10046000A4F10C040294009CCDE900B400F07FF9E3
:1004700003B0BDE8F08F00200146F9E72DE9F04D0B
:1004800081EA030404F0004B21F0004514464FF0CC
:10049000000A23F0004150EA050220D054EA01028C
:1004A0001DD0C5F30A570246C5F31303C1F3130069
:1004B000C1F30A5640F4801543F48013A7EB0608F5
:1004C000101BD64608F2FD3873EB050002D308F185
:1004D000010801E092185B41B8F1000F03DA002037
:1004E0000146BDE8F08D00204FF480110646844699
:1004F0000EE0171B73EB050705D3121B63EB050317
:1005000006434CEA010C49084FEA300092185B415F
:1005100050EA0107EDD152EA030012D082EA04004A
:1005200083EA0501084305D0101BAB4106D2012226
:10053000002306E000224FF0004302E06FF00102CA
:1005400053101AEB06004CEB085110EB0A0041EB7C
:100550000B01BDE8F04D00F0FBB80EB5C10F80EA0D
:10056000E0700844CA07002140F233438DE80E00D2
:100570000A460B4600F0FBF803B000BD70B5C1F3AE
:100580000A5201F000450024C1F3130140F2FF3389
:1005900041F480119A4201DA002070BD40F23343E9
:1005A0009A42A2F2334203DC524200F05AF800E0D1
:1005B00090402C43F1D0404270BD00F0004230F03A
:1005C00000400AD0C10D01F56071C0F3160042EA87
:1005D0000151C2084007114370470020014670478F
:1005E00001F0004330B421F0004150EA010206D08E
:1005F0000A0DA2F56072C1F31301002A02DC30BCBF
:1006000000207047440F44EAC104C100E01830BC28
:1006100000EBC25000F047B830B50B460146002051
:100620002022012409E021FA02F59D4205D303FAB4
:1006300002F5491B04FA02F52844151EA2F1010235
:10064000F1DC30BD202A04DB203A00FA02F1002060
:1006500070479140C2F1200320FA03F31943904000
:100660007047202A04DB203A21FA02F0002170476B
:1006700021FA02F3D040C2F120029140084319460A
:100680007047202A06DBCB17203A41FA02F043EAF2
:10069000E07306E041FA02F3D040C2F1200291403B
:1006A0000843194670470029A8BF7047401C4900FD
:1006B00008BF20F00100704710B4B0FA80FC00FAC7
:1006C0000CF050EA010404BF10BC704749B1CCF1F2
:1006D000200421FA04F411FA0CF118BF012121437E
:1006E0000843A3EB0C01CB1D4FEA00614FEA102039
:1006F00042BF002010BC704700EBC35010440029DB
:10070000A4BF10BC7047401C490008BF20F0010086
:1007100010BC704710B541000CD0C0F3C7519629EA
:1007200008DC7E2909DC06DB410204D000F0004031
:1007300040F07E5010BD002010BDC1F19604C4F100
:10074000200100FA01F1E040FFF7ADFFA04010BD2D
:1007500010B5141E73F1000408DA401C41F10001C9
:1007600092185B411A4301D120F0010010BD2DE920
:10077000F04D92469B4611B1B1FA81F202E0B0FA17
:1007800080F220329046FFF75DFF04460F4640EAB4
:100790000A0041EA0B0153465A46084313D011465A
:1007A00053EA010019D0C8F140025046FFF759FF43
:1007B00005460E46504659464246FFF743FF08435A
:1007C00005D0012004E020463946BDE8F08D002028
:1007D000054346EAE0762C4337430A986305E40A6A
:1007E000A0EB08000022FD0A44EA47540A3002D573
:1007F00000200146E9E7010510196941DDE90845D6
:1008000000196941BDE8F04DA2E770B521F0004341
:1008100003430CD0C1F30A550024D5EB040564EB67
:100820000403D617AD1AB34102DB0020014670BDA8
:10083000201841EB025170BD30B5041E71F1000467
:1008400004DB4FF00044404264EB0101141E73F1DD
:10085000000405DB1C464FF00043524263EB0403E7
:10086000994208BF904230BD064C074D06E0E06853
:1008700040F0010394E8070098471034AC42F6D3E7
:10088000FFF786FC90360008B03600082DE9F04DE1
:1008900000231A461B1A8A4103DB00200146BDE8EB
:1008A000F08DC1F30A52C1F3130141F480154FF0EA
:1008B000000BD10702D100186D41521E00270446DB
:1008C00040F2FF11384601EB620A3E46804602467E
:1008D00000204FF48011FFF7C4FEC2197141BB180C
:1008E00046EB0100B4EB030C75EB000C04D3E41AE7
:1008F00065EB000517460E46241908F101006D410D
:1009000080463428E3DDF91946EB0600091BA841AF
:1009100003D24FF0FF32134601E0002213461BEBD7
:10092000070046EB0A51BDE8F04DFFF711BFFEE7A7
:100930002DE9F0412DED088B00269FEDCD8A9FED2E
:10094000CD1ADFEDCD1ADFEDCD0ACD4C884211DD99
:1009500002EE101A0126B8EEC22A22EE012A22EE79
:10096000212AC2EE202ABDEEE22A84ED002A02EE00
:10097000100A0FE002EE100AB8EEC22A22EE012A97
:1009800022EE212AC2EE202ABDEEE22A84ED002AC0
:1009900002EE101AF6EE009AB8EEC22A20EE299A5C
:1009A00022EE011A21EE211AC1EE201AFDEEE10A13
:1009B000C4ED010A10EE901A2068084400EBD070D4
:1009C000451019EE100AFFF7F8FD41EC100B9FEDF2
:1009D000ADABB0EE4A1AF0EE6A1A01F0C5FC206821
:1009E000B0EE40BA281AF0EE60BA4000FFF7B5FD4D
:1009F00053EC1B2BFFF742FD41EC100B01F0AAFC5E
:100A000051EC100BFFF7ECFD08EE900A19EE100AFE
:100A1000FFF7D3FD41EC100B9FED9C1B01F0A4FCF4
:100A2000B0EE40BAF0EE60BA18EE900AFFF7C5FDDE
:100A300053EC1B2BFFF7B0FC9FED961B53EC112BD7
:100A4000FFF71CFD256841EC1B0B00EE105AB8EEB9
:100A5000C00A20EE090A10EE100AFFF7AEFD53ECB3
:100A60001B2BFFF7F2FBFFF789FDE060616829446B
:100A700000EE101AF8EEC00A00EE100AB8EEC00A36
:100A800010EE890ABDEEC00A10EE101A216108446A
:100A9000A060C10701D0401CA0600146B0F57A7F7C
:100AA00006DDBDEC088B7DA0BDE8F04101F01ABC6D
:100AB000F1EE080A80EEA80A10EE100AFFF77DFD9D
:100AC00041EC100B9FED821B01F04EFC51EC100B22
:100AD000FFF786FD00EE100A38EE008A18EE100AC5
:100AE000FFF76BFD41EC100BB0EE4A1AF0EE6A1AFC
:100AF00001F03AFC68EEA98AB0EE40BAF0EE60BAB6
:100B000018EE900AFFF759FD53EC1B2BFFF744FC3E
:100B1000FFF766FDD4ED000A00EE100A6E48F8EE0D
:100B2000E00AA82130EE800A84ED050A0068B0FBD7
:100B3000F1F200EE902AF8EE601ADFED680A81EE1D
:100B4000A01AB4EEC01AF1EE10FA09DBB0FBF1F016
:100B500000EE100AB8EE400A80EE201A84ED051A65
:100B6000012562E004EB8507B7EE001AD7ED040A11
:100B7000E06881EE200AA84238EE008A2CDD18EEEB
:100B8000100AFFF71AFD41EC100BB0EE4A1AF0EE16
:100B90006A1A01F0E9FBB0EE40BAF0EE60BA18EE66
:100BA000900AFFF70AFD53EC1B2BFFF7F5FBFFF74D
:100BB00017FDD4ED000A00EE100AF8EEE00A30EE60
:100BC000800A87ED050AE068401EA8422CD138EE65
:100BD000490AB0EEC08A27E039EE480AB0EEC00AF2
:100BE00010EE100AFFF7E9FC41EC100BB0EE4A1AC8
:100BF000F0EE6A1A01F0B8FBB0EE40BAF0EE60BA5F
:100C000018EE900AFFF7D9FC53EC1B2BFFF7C4FB3F
:100C1000FFF7E6FCD4ED010A00EE100AF8EEE00A58
:100C200030EEC00A87ED050A6D1CA068A84299DC69
:100C3000002E19D0002011E0091A04EB810104EB09
:100C40008002D1ED040A92ED050AC2ED050AA16801
:100C5000091A04EB8101401C81ED040AA16801EB33
:100C6000D172B0EB620FE7DBBDEC088BBDE8F08121
:100C700000000000000048430000004200007042F5
:100C8000A80000200000000000000040000000005C
:100C9000000008400000000000001840464F524D80
:100CA0005F4C454E20BBBAB4E6B3A4B6C8B2BBD7BE
:100CB000E30D0A2CC7EBBDAB20464F524D5F4C45B0
:100CC0004E20D0DEB8C4CEAA202564200D0A000034
:100CD000000000605555D53F1000002000FF7F4701
:100CE000704772B6FEE700002DE9F84FDFF8BCA1AF
:100CF0000022012503264FF00F090AF1040BAAF187
:100D0000040E00BF0B6805FA02F42340A34270D121
:100D10000F7907F00307012F01D0022F16D1876842
:100D20004FEA420806FA08FC27EA0C07D1F80CC083
:100D30000CFA08FC4CEA070CC0F808C04768A74347
:100D40000C79C4F3001494403C4344600C79E443B0
:100D5000A4070AD0C4684FEA420C06FA0CF7BC4359
:100D60008F6807FA0CF72743C7600C7904F0030477
:100D7000022C12D1D40800EB840CDCF82040570779
:100D8000FF0E09FA07F824EA0804D1F8108008FADF
:100D900007F848EA0408CCF8208004684FEA420CBF
:100DA00006FA0CF7BC430F7907F0030707FA0CF7B4
:100DB000274307604C6814F4403F70D03C4C2768D0
:100DC00047F480472760246822F0030704F4804436
:100DD0000094384C07EB040CDCF8084897074FEAFE
:100DE000177809FA08F7BC43334FB84202D10027FD
:100DF00024E054E0314FB84201D101271EE0304FCA
:100E0000B84201D1022719E02E4FB84201D1032781
:100E100014E02D4FB84201D104270FE02B4FB84208
:100E200001D105270AE02A4FB84201D1062705E083
:100E3000284FB84201D1072700E0082707FA08F732
:100E40002743CCF80878DAF800405746D1F804C0B8
:100E50009C435FEACC2C00D51C433C60DBF800408F
:100E60005F46D1F804C09C435FEA8C2C00D51C433C
:100E70003C60DEF800407746D1F804C09C435FEA4E
:100E80008C3C00D51C433C60084F083F3C68D1F8BF
:100E900004C09C435FEACC3C00D51C433C60521C20
:100EA000102AFFF42FAFBDE8F88F0000083C014086
:100EB000443802400030014000000240000402407B
:100EC00000080240000C02400010024000140240E2
:100ED00000180240001C02400069084000D00120B8
:100EE00070470AB1816170470904FBE70148006857
:100EF000000C7047002004E0014880687047000043
:100F00000400002002488168027811448160704723
:100F1000040000200B4810B5016841F40071016025
:100F2000016841F480610160016841F480710160F1
:100F3000032000F06FF80F2000F006F800F024F80E
:100F4000002010BD003C024070B50D4D04464FF42A
:100F50007A712878B1FBF0F00A490968B1FBF0F02A
:100F600000F00CFB48B9102C07D200222146501E7D
:100F700000F030F800206C6070BD012070BD0000F2
:100F800004000020100000200A4808B5016841F460
:100F900080410160006800F4804000900548001F17
:100FA000016841F080510160006800F080500090BD
:100FB00008BD000044380240002809DB00F01F0291
:100FC000012191404009800000F1E020C0F80011AB
:100FD00070470000F0B40E4B1B680C46C3F30223AD
:100FE000C3F10705042D00D90425191D072901D2D5
:100FF000002300E0DB1E012606FA05F1491E214010
:1010000099409E40761E16403143F0BC01F092B9E3
:101010000CED00E0064900F0070208684FF6FF03F8
:10102000184040EA0220034A10430860704700005D
:101030000CED00E00000FA052DE9F0470E46050032
:1010400065D0DFF81481D8F80000F7B200F007008F
:10105000B04207D288F80070D8F8000000F007000E
:10106000B04254D128683D4C810712D5400703D5C2
:10107000206840F4E05020602878000703D52068FD
:1010800040F4604020602068A96820F0F000084328
:1010900020602878C0072DD03049686808390128B9
:1010A00012D0022813D0032811D00968890700291B
:1010B0002DDA216821F0030101432160FFF71CFFB5
:1010C000814641F2883A0EE009688903EFE7096832
:1010D0008901ECE7FFF710FFA0EB0901514502D9A8
:1010E0000320BDE8F0872068696800F00C00B0EBD1
:1010F000810FEFD1D8F80010404601F00701B1424E
:1011000007D90770006800F00700B04201D0012045
:10111000E7E72878400705D52068E96820F4E05023
:10112000084320602878000706D52068296920F444
:10113000604040EAC100206000F038F82168084AA9
:10114000C1F30311515CC8400649086006480068B5
:10115000FFF7FAFE0020C4E7003C024008380240D6
:10116000E835000810000020080000200448054968
:1011700000680968044AC1F38221515CC840704785
:101180001000002008380240F835000804480549DE
:1011900000680968044AC1F34231515CC840704795
:1011A0001000002008380240F8350008154810B536
:1011B000006810F00C02144813D01449042A0FD010
:1011C000082A0ED10F4C241F2268236802F03F0228
:1011D0005B0207D52068C0F38810A0FB010106E080
:1011E000084610BD2168C1F38811A1FB000100234E
:1011F000FEF7E8FF2168C1F30141491C4900B0FB3B
:10120000F1F010BD083802400024F40040787D0160
:101210002DE9F84F04006ED02078DFF84C93C0071A
:10122000A9F104054AD009F104000168C1F3810164
:10123000012908D00068C0F3810002280AD1D9F83A
:101240000000400206D52868800337D56068002872
:10125000E1D033E06068B0F5803F10D0B0F5A02F4A
:10126000286810D020F480302860286820F480207E
:1012700028606068A8B1FFF73FFE06460DE02868C9
:1012800040F48030F4E740F480202860F7E700BFA6
:10129000FFF732FE801B642873D828688003F7D5D7
:1012A0000CE0FFF729FE064605E000BFFFF724FE2D
:1012B000801B6428F0D828688003F7D42078DFF8F2
:1012C000AC8280074FF0000A3ED5A748001D016898
:1012D00011F00C0F08D00068C0F3810002280BD178
:1012E000D9F80000400207D42868800716D5E068C6
:1012F000012800D112E033E1E068B8B10120C8F85C
:101300000000FFF7F9FD064605E000BFFFF7F4FD1A
:10131000801B0228C0D828688007F7D52868216973
:1013200020F0F80040EAC10028600DE0C8F800A0F5
:10133000FFF7E2FD064604E0FFF7DEFD801B022812
:101340001FD828688007F7D42078000722D5864F59
:1013500087486169703771B101210160FFF7CCFDE9
:10136000064604E0FFF7C8FD801B022809D838684C
:101370008007F7D50EE0C0F800A0FFF7BDFD0646D8
:1013800005E082E0FFF7B8FD801B02287DD83868B1
:101390008007F7D42078400768D5DFF8CCB1002764
:1013A0000BF13C0BDBF80000C0000BD4DBF80010A5
:1013B00041F08051CBF80010DBF80000012700F06D
:1013C000805000906B4E3068C00510D4306840F4F7
:1013D00080703060FFF790FD009005E0FFF78CFD16
:1013E0000099401A022850D83068C005F6D55E4EE4
:1013F000A0686C3601280FD00528306810D020F086
:1014000001003060306820F004003060A068B8B19E
:10141000FFF772FD00900FE0306840F00100F4E744
:1014200040F004003060F7E7FFF766FD0099411ACD
:1014300041F28830814266D830688007F4D50EE0EA
:10144000FFF75AFD009007E0FFF756FD0099411A9B
:1014500041F28830814256D830688007F4D42FB1E9
:10146000DBF8001021F08051CBF80010A069C8B360
:101470003D49091D0968C1F3810102294AD00228AA
:10148000504607D0C8F8600000E03CE0FFF734FDAC
:1014900004463BE04746C8F86000FFF72DFD0646CE
:1014A00005E000BFFFF728FD801B02282BD8286825
:1014B0008001F7D4D4E907010843A16A2E4A4908FC
:1014C00002EB0141626A41EA8211084394F82C1050
:1014D00040EA0161C9F8001001203866FFF70CFDF1
:1014E000044606E03EE000BFFFF706FD001B0228B1
:1014F00009D828688001F7D534E000BFFFF7FCFC6D
:10150000001B022802D90320BDE8F88F286880015B
:10151000F4D427E00128F7D0D9F80000E26900F4FC
:10152000800191421CD1226A00F03F01914217D103
:1015300047F6C071626A0140B1EB821F10D1A26A06
:101540004FF0FF3300F4403103EB5202B1EB024F96
:1015500006D194F82C1000F07060B0EB016F01D050
:101560000120D1E70020CFE70438024000004742C5
:10157000800E4742007000400000FFFF10B5401E83
:10158000B0F1807F01D3012010BD4FF0E0246061F5
:101590000F21601700F0CEFE0020A061072020611F
:1015A000002010BD7047704710B590F83C20012A0C
:1015B00022D0012280F83C20CA688C6822F4407254
:1015C00022434C6822F4806222430C6822F40062B9
:1015D00022430C6922F4805222434C6922F40052C7
:1015E0002243C969002322F480420A4301684A6405
:1015F00080F83C30002010BD022010BD70B590F87E
:101600003C20012A32D0012480F83C40022280F89C
:101610003D2003685A689D6822F070060A683243CC
:101620005A60134B02689A4214D0B2F1804F11D025
:10163000104B9A420ED0104B9A420BD00F4B9A424D
:1016400008D00F4B9A4205D00E4B9A4202D00E4B57
:101650009A4204D1496825F080031943916080F8CB
:101660003D40002180F83C10084670BD022070BD4E
:10167000000001400004004000080040000C004051
:1016800000040140004001400018004090F83D1067
:10169000012901D001207047022180F83D10006827
:1016A0001149884214D0B0F1804F11D00F498842BF
:1016B0000ED00F4988420BD00E49884208D00E49FF
:1016C000884205D00D49884202D00D49884204D194
:1016D000816801F00701062903D0016841F001018A
:1016E000016000207047000000000140000400403D
:1016F00000080040000C0040000401400040014090
:1017000000180040704770B50446006801694FF04A
:101710000005C943890715D4C168C943890711D495
:10172000E91E01610120207720688069800720463A
:1017300002D0FFF7E7FF04E000F0EBF8204600F0EE
:10174000AFF9257720680169C943490717D4C168F3
:10175000C943490713D46FF00401016102202077C7
:101760002068806910F4407F204602D0FFF7CAFF4E
:1017700004E000F0CEF8204600F092F925772068CA
:101780000169C943090716D4C168C943090712D4BE
:101790006FF008010161042020772068C06980078C
:1017A000204602D0FFF7AEFF04E000F0B2F820467A
:1017B00000F076F9257720680169C943C90617D476
:1017C000C168C943C90613D46FF010010161082034
:1017D00020772068C06910F4407F204602D0FFF7D0
:1017E00091FF04E000F095F8204600F059F92577C4
:1017F00020680169C943C90708D1C168C943C9073D
:1018000004D1891E0161204600F04BF9206801696E
:10181000C943090609D4C168C943090605D46FF054
:10182000800101612046FFF7BDFE20680169C943C0
:10183000490609D4C168C943490605D46FF040017F
:101840000161204600F02EF920680169C94389062C
:101850000BD4C168C943890607D46FF02001016128
:101860002046BDE87040FFF79EBE70BD10B586B043
:10187000044614216846FEF7DDFC0E4920688842C4
:1018800015D10D48016841F48071016000680121A3
:1018900000F480700590202000900220CDE9010125
:1018A00003900320049069460448FFF71DFA06B030
:1018B00010BD00000004014030380240002002400A
:1018C00070B5044690F83C00002501280FD0012097
:1018D00084F83C006AB1042A0FD0082A11D00C2ADF
:1018E00013D00125002084F83C00284670BD02205A
:1018F00070BD206800F070FBF4E7206800F09CFBEE
:10190000F0E7206800F0CEFBECE7206800F0FEFB7B
:10191000E8E7704710B5040003D094F83D0010B11B
:1019200007E0012010BD002084F83C00204600F0B4
:101930001FF8022084F83D00211D206800F0DAFA2B
:10194000012084F8460084F83E0084F83F0084F8C3
:10195000400084F8410084F8420084F8430084F891
:10196000440084F8450084F83D00002010BD0000CC
:1019700008B500680B49884212D10B48016841F054
:10198000020101600068002200F002000090114690
:101990002E20FFF71FFBBDE808402E20FFF70CBBF1
:1019A00008BD0000000401404438024030B5002565
:1019B0000446022249B1042912D008294CD094F8D7
:1019C0004100012853D0012030BD94F83E00012889
:1019D000F9D184F83E202068C26842F0020209E092
:1019E00094F83F000128EED184F83F202068C268B7
:1019F00042F00402C2600122206800F0DFFA2149AF
:101A00002068214A884201D0904203D1436C43F4BC
:101A1000004343642068884213D0B0F1804F10D057
:101A20001A4988420DD01A4988420AD01949884279
:101A300007D0904205D01849884202D01749884201
:101A400004D1816801F00701062903D0016841F043
:101A500001010160284630BD94F840000128B2D150
:101A600084F840202068C26842F00802C2E784F887
:101A700041200C2901D00125ECE72068C26842F022
:101A80001002B7E7000001400004014000040040DC
:101A900000080040000C00400040014000180040D9
:101AA00070477047704770B5040004D094F83D004B
:101AB000002510B106E0012070BD84F83C5020469E
:101AC00000F022F8242084F83D002068C16821F449
:101AD0000051C160204600F041FB2068016921F4FB
:101AE000904101612068416921F02A01416120682B
:101AF000C16841F40051C1602564202084F83D0094
:101B000084F83E00002070BD10B586B00446142154
:101B10006846FEF78FFB13492068884220D112489F
:101B20000021026842F010020260006800F010001C
:101B300005900D481438026842F002020260006805
:101B400000F002000590C02000900220CDE90101C4
:101B5000032003900720049069460448FFF7C4F867
:101B600006B010BD0010014044380240000402409D
:101B70002DE9F843044690F83D001F4616460D46F1
:101B800020284CD1C5B1BEB194F83C00012846D004
:101B9000012084F83C004FF00008C4F84080212068
:101BA00084F83D00FFF7A8F9A6848146E684A06882
:101BB000B0F5805F03D004E00120BDE8F883206920
:101BC00028B12E465FF0000584F83C800EE0002628
:101BD000FAE78021204600F047FBA0B9AEB116F825
:101BE000010B21684860E08C401EE084E08C4B468D
:101BF0004FF0000200970028EBD14FF04001204643
:101C000000F032FB30B10320D7E735F8020BC0F308
:101C10000800E6E7202084F83D000020CDE7022000
:101C2000CBE7FEE770B50C460546FFF755F90128EE
:101C300001D0002070BD21462846FFF74DF901284C
:101C4000F9D0012070BD000070B586B0142168463F
:101C5000FEF7F0FA33480024016841F00401016006
:101C6000016801F004010591016841F08001016003
:101C7000016801F080010591016841F001010160F6
:101C8000016801F001010591016841F04001016026
:101C9000016801F040010591016841F00201016015
:101CA000016801F002010591016841F01001016035
:101CB000016801F010010591016841F48071016033
:101CC0000068194E00F48070059000220321304610
:101CD000FFF707F94FF40050CDE9000469461348B7
:101CE0000294FFF701F801254FF488100095CDE923
:101CF000010469460E48FEF7F7FF1C20CDE90004F9
:101D000069460C480294FEF7EFFF0320CDE9000579
:101D10000220CDE9025069463046FEF7E5FF06B0E5
:101D200070BD000030380240001002400008024040
:101D3000000002400018024010B592B000240F9439
:101D40001C2108A81094FEF775FA20216846FEF7BA
:101D500071FA224820490160A621C0E901144FF61A
:101D6000FE71C0E9031444618461FFF7D3FD08B13B
:101D7000FEF7B7FF0F940FA918481094FFF73EFC29
:101D800008B1FEF7AEFF3020CDE908040820CDE908
:101D90000A400C940D94002208A910480E94FFF7F5
:101DA0008FFD08B1FEF79DFF00944FF40050CDE980
:101DB0000440029401940394694608480794FFF78D
:101DC000F3FB08B1FEF78DFF0448FFF75FFC034803
:101DD000FFF74CFD12B010BD000401401C000020B4
:101DE0000C4810B50A4901604FF4E131416000210F
:101DF00081600C22C160C0E904128161C161FFF7FA
:101E000052FE002803D0BDE81040FEF76ABF10BDA7
:101E10000010014064000020FEE7FEE770477047B5
:101E2000FFF770B830B593B030216846FEF702FA7C
:101E300014210CA8FEF7FEF922480025016841F0A4
:101E400080510160006800F0805011901E480168C8
:101E500041F4804101600068022400F48040119048
:101E60000120039010200490009406940820CDE9EE
:101E70000750A820CDE9090404200B906846FFF71D
:101E8000C7F908B172B6FEE70CA90F2081E831004E
:101E90004FF4A0500F904FF48050109005210CA8E3
:101EA000FFF7CAF808B172B6FEE7FFF71FF841F274
:101EB0000101884204D10548016841F48071016044
:101EC00013B030BD4038024000700040003C02407A
:101ED0000248016841F470010160704788ED00E03C
:101EE00010B50348FFF70FFCBDE8104001F094BAAD
:101EF0001C000020F0B50268254C264D264E274FC9
:101F0000274B4FF0804CA04209D0604507D0A84233
:101F100005D0B04203D0B84201D0984204D122F09B
:101F2000700E4A6842EA0E02A0421BD0604519D0EA
:101F3000A84217D0B04215D0B84213D0984211D061
:101F4000184DA8420ED0184DA8420BD0174DA842EC
:101F500008D0174DA84205D0164DA84202D0164D04
:101F6000A84203D122F44075CA682A434D6922F081
:101F700080022A4302608A68C2620A688262A042C2
:101F800001D0984201D10969016301214161F0BD8D
:101F9000000001400004004000080040000C004028
:101FA000000401400040014000440140004801405D
:101FB00000180040001C00400020004010B501F057
:101FC0001F030121046A99408C430462016A9A400C
:101FD0001143016210BD0000F0B5026A22F0010257
:101FE0000262036A42688469124E24F073050C6829
:101FF0002C4323F002058B682B430D4DA84201D0E2
:10200000B04205D123F00807CB683B4323F004031B
:10201000A84201D0B04205D14D6922F44072154367
:102020008A692A4342608461496841630362F0BD62
:102030000000014000040140F0B5026A22F01002E5
:102040000262026A436884690D6824F4E64444EA43
:1020500005248D6822F0200242EA05120F4D104E31
:10206000A84201D0B04206D1CF6822F0800242EAF5
:10207000071222F04002A84201D0B04207D14D69B8
:1020800023F4406343EA85038D6943EA8503436093
:102090008461496881630262F0BD00000000014074
:1020A00000040140F0B5026A22F480720262026A02
:1020B0004368C46922F4007224F073050C68124E60
:1020C0002C438D6842EA05220E4DA84201D0B04251
:1020D00006D1CF6822F4006242EA072222F480622D
:1020E000A84201D0B04207D14D6923F4405343EADE
:1020F00005138D6943EA05134360C4614968C163F0
:102100000262F0BD000001400004014030B5026AE7
:1021100022F480520262046A4268C3690D6823F4A3
:10212000E64343EA05238D6824F4005444EA053469
:10213000084DA84202D0084DA84204D14D6922F4AE
:10214000804242EA85124260C361496801640462C8
:1021500030BD0000000001400004014070B504469D
:1021600000680169E26821F440511143016121696D
:10217000A068E26908436169114308432168CA689D
:1021800049F20C639A430243CA6020684169A2691C
:1021900021F440711143416131492068884202D0E5
:1021A0003049884202D1FEF7F1FF01E0FEF7DEFF81
:1021B000E2690023192164253226B2F5004F6268D6
:1021C00028D0A0FB0101930F9200FDF7FBFF014611
:1021D000B0FBF5F06FF01802504301EB800006EB06
:1021E0000010B0FBF5F000F0F002B1FBF5F002EBEF
:1021F0000012B1FBF5F06FF01803584301EB8000BB
:1022000006EB0010B0FBF5F000F00F002168104461
:10221000886070BDA0FB010192185B41FDF7D2FF01
:102220000146B0FBF5F00201B1FBF5F06FF01803C9
:10223000584301EB800006EBC000B0FBF5F000F066
:10224000F80002EB4002B1FBF5F0584301EB8000CF
:1022500006EBC000B0FBF5F000F00700D6E7000089
:1022600000100140001401402DE9F0419846174646
:102270000E460446069D27E0681C25D02DB1FEF7CA
:102280003BFEA0EB0800A8421ED920680C3050E8A5
:10229000001F21F4D07140E80012002AF5D1206817
:1022A000143050E8001F21F0010140E80012002A1C
:1022B000F5D1202084F83D0084F83E00002084F809
:1022C0003C000320BDE8F0812068006836EA000089
:1022D00004D00020B842CFD00020F3E70120F9E776
:1022E000FEE700000FB4054B10B503A9044A02989D
:1022F00000F098FF10BC5DF814FB0000913300085B
:102300001400002003B401984100009850EAC12055
:1023100018BF04204A0D18BF40F0010040F2FF72C0
:10232000B2EB515F08BF40F00200012808BF052052
:1023300002B070470907090E002804DB00F1E02015
:1023400080F80014704700F00F0000F1E02080F8E2
:10235000141D70472DED020B019820F000400190F4
:102360009DED000B02B070472DE9F04D2DED040BF3
:102370002DED0E8B96B0DDE92550279CDDF890A061
:1023800025F0004624F00048BAF1000F14BF0121E7
:10239000002101EB4502FC4953184A1093422AD30D
:1023A000002814BF0123002303EB44030B44F74927
:1023B0008B4220D358EA00019FEDF59B76D0DFF8E1
:1023C000D8B35D4503D1BAF1000F05D188E0BAF169
:1023D000000F08BF002100D0012101EB450111F5DC
:1023E000001F08D8002814BF0121002101EB44017F
:1023F00011F5001F0BD99DED261B9DED240B16B08A
:10240000BDEC0E8B04B0BDE8F04D00F0B9BE002766
:10241000002DBCBFE149884521DAE1498845A8BFC4
:1024200002271CDAC3451ADCDE4901EB28511429C6
:1024300008DDC1F1340220FA02F101FA02F282420F
:102440000DD108E058B9C1F1140228FA02F101FADD
:1024500002F2424503D101F00101C1F1020756EA3F
:102460000A0124D1002C22DA002D18BF022F01D03E
:10247000012F0AD0022000F0CFFE16B0BDEC0E8B6B
:1024800004B0BDE8F04D00F063BE022000F0C4FED1
:1024900000F05EFE51EC100B81F0004141EC100B9E
:1024A00016B0BDEC0E8B04B0BDE8F08D18E09FEDCA
:1024B000BEAB9FEDBF8B002871D1B848804522D1BB
:1024C00005F1804010F5801008BFBAF1000F07D069
:1024D000B3450ADC002CA8BF9DED260BE0DA0DE029
:1024E000B0EE490AF0EE690ADAE7002C06DA9DED53
:1024F000260B51EC100B81F000416FE0AE487844A0
:1025000090ED000BCCE7D8454DD1002C48DA2EB128
:1025100086423AD1BAF1000F42D126E0BAF1000F5B
:1025200013D0022000F078FE00F046FE8DED020B85
:102530009DED240B8DED000B10EE900A039961F3D5
:102540001E0003909DED020BAAE78DED02AB9DED01
:10255000240B1AEE901A10EE900A8DED000B61F329
:102560001E0003909DED020B9AE78DED028B9DED11
:10257000240B18EE901A10EE900A8DED000B61F30B
:102580001E0003909DED020B8AE709DA9DED240BF6
:1025900051EC190B53EC102BFDF770FF1EE020E0FF
:1025A0009DED240B7CE786421BDAB4F1804F0DD001
:1025B000A4F10050B0F1FF5013D1002D11DB9DEDBF
:1025C000240B51EC100B00F091FF07E09DED240B64
:1025D00053EC102B51EC100B00F0C2BC41EC100B73
:1025E0005EE79DED240B51EC100B00F0C5FEBAF137
:1025F000000FCDE90E0142D19FED710B46B3A6F15C
:10260000E040B0F17F600CD05E4538D1002D00DA9B
:10261000A7B3022F0CBF01204FF0FF30FDF79DFF45
:10262000DCE7002D01DD002C0DDA002D01DD002C92
:102630001FDB002D16DA002C14DB012F08BF9FEDE5
:10264000620B3FF42DAFB0EE4A0AF0EE6A0A27E7BC
:10265000022F18BF002D0CD0012F0AD1002DFFF63C
:102660001FAF06E0002DB8BF002C08DA012F3FF4A1
:1026700017AFB0EE480AF0EE680A11E71BE0012040
:1026800000EBE57050EA070115D0791EB0EE498ADB
:10269000F0EE698A084308BF9FED4D8B4E48002538
:1026A000804570DD4D494E48884514DDB0420DDB54
:1026B000002C19DB2FE0012000F0AEFD16B0BDECC0
:1026C0000E8B04B0BDE8F04D00F066BDB34502DCF2
:1026D000002C09DC1FE0864202DA002C1BDA03E042
:1026E0005E452BDD002C16DD022000F095FD00F08C
:1026F00063FD8DED020B53EC1A2B51EC180BFDF71B
:102700004BFECDE900010399019861F31E0003908F
:102710009DED020BC4E6022000F07EFD00F05CFDA2
:1027200010EE901A18EE900A8DED020B8DED008BD5
:1027300061F31E0003909DED020BB1E69DED0E0BC3
:1027400053EC192B51EC100BFDF720FE9FED260BDF
:10275000CDE9080153EC102B9DED080B51EC100B4B
:10276000FDF71AFE9FED221B53EC112BFDF711FE16
:102770009DED081B53EC112BFDF70EFE9FED1E1B6C
:1027800053EC112B3CE08CE0FFFF1F00FFFF0F001C
:10279000000000000000F03F0000F03F0000F07F6C
:1027A0000000404301FCFFFF000000000000F07F3C
:1027B0000000000000000000861100000000000082
:1027C0000000000000000080000000000000F0FF9A
:1027D000000000000000F0BF0000E0410000F043F6
:1027E000FFFFEF3F00000000000000000000D03FAE
:1027F000555555555555D53F000000000000E03FA8
:10280000FDF7C7FD9DED080B41EC1A0B53EC102BA7
:1028100051EC100BFDF7C0FD53EC1A2BFDF7BCFD7E
:1028200041EC1A0B9FEDFE0B53EC102B9DED080BAA
:1028300051EC100BFDF7B0FD41EC1B0B9FEDFA0BBB
:1028400051EC1A0B53EC102BFDF7A6FD41EC1A0BC3
:102850009FEDF70B53EC102B9DED080B51EC100B7B
:10286000FDF79AFD53EC1A2BFDF790FD41EC1A0B86
:1028700051EC1B0B53EC1A2BFDF7E7FC0690CDE94E
:1028800006519DED060B53EC1B2B51EC100BFDF785
:102890007DFD53EC1A2BFDF77CFD41EC100B00F095
:1028A000A1B90020B6F5801F0EDA9FEDE30B53ECC3
:1028B000102B9DED0E0B51EC100BFDF76DFDCDE9CE
:1028C0000E016FF034000E4600EB2650A0F2FF37E9
:1028D000C6F31300DA4940F07F6646F0405688425E
:1028E000D8BF002408DDD7498142C8BF012403DCDA
:1028F0000024A6F580167F1CD348784400EBC40062
:102900000F9690ED00CB9DED0E0B53EC1C2B51EC74
:10291000100BFDF73BFD9DED0E0B41EC1B0B53EC3B
:102920001C2B51EC100BFDF790FC41EC100B51EC03
:10293000190B53EC102BFDF7A1FD41EC1D0B51ECD5
:102940001B0B53EC1D2BFDF727FD41EC1A0BBF4869
:102950008DED10AB7844109590ED000B4FF00050CA
:1029600040EA660000EB84408DED080B00F5002086
:1029700009909DED080B53EC1C2B51EC100BFDF74F
:1029800005FD9DED0E1B53EC112BFDF702FD41ECF7
:10299000100B53EC102B9DED100B51EC100BFDF7B1
:1029A000FBFC9DED080B41EC1C0B53EC102B9DED3B
:1029B000100B51EC100BFDF7EFFC53EC1B2BFDF74C
:1029C000E8FC53EC1C2BFDF7E1FC53EC1D2BFDF751
:1029D000E3FC41EC1C0B53EC1A2B51EC1A0BFDF7EA
:1029E000DBFC41EC1B0B9A480621B0EE4B0AF0EEE3
:1029F0006B0A784400F02DFBB0EE401AF0EE601A3E
:102A0000B0EE41DAF0EE61DA53EC1B2B51EC1B0B0C
:102A1000FDF7C2FC53EC1D2BFDF7BEFC9DED100B2A
:102A200041EC1B0B53EC1A2B51EC100BFDF70DFC7A
:102A300053EC1C2BFDF7B0FC53EC1B2BFDF705FCF6
:102A40009DED100B41EC1B0B53EC102B51EC100BBC
:102A5000FDF7A2FC41EC1D0B9FED7FEB53EC1E2B11
:102A6000FDF7F3FB53EC1B2BFDF7EFFB0890CDE9D3
:102A700008519DED080B53EC1E2B51EC100BFDF78C
:102A800085FC53EC1D2BFDF781FC53EC1B2BFDF754
:102A900080FC9DED080B41EC1D0B53EC102B9DEDC4
:102AA000100B51EC100BFDF777FC41EC1B0B53ECBA
:102AB0001A2B51EC1D0BFDF76FFC9DED080B41EC43
:102AC0001A0B53EC102B51EC1C0BFDF765FC53EC6F
:102AD0001A2BFDF7BAFB41EC1A0B51EC1B0B53EC14
:102AE0001A2BFDF7B2FB0C90CDE90C519DED0C0BB0
:102AF00053EC1B2B51EC100BFDF748FC53EC1A2B3D
:102B0000FDF747FC41EC1B0B9FED550B53EC102BD5
:102B10009DED0C0B51EC100BFDF73EFC41EC1A0B3C
:102B20009FED510B51EC1B0B53EC102BFDF734FCBC
:102B300041EC1B0B9FED4E0B53EC102B9DED0C0B42
:102B400051EC100BFDF728FC53EC1B2BFDF77DFB24
:102B500041EC100B4848784400EBC40090ED001B9A
:102B600051EC100B53EC112BFDF76FFB41EC1B0BE1
:102B70003846FDF7F2FCCDE9080153EC1B2B51EC74
:102B80001A0BFDF762FB41EC100B3C48784400EB5C
:102B9000C40090ED00CB51EC100B53EC1C2BFDF757
:102BA00054FB9DED081B53EC112BFDF74EFB0690DB
:102BB000CDE906519DED080B53EC102B9DED060B56
:102BC00051EC100BFDF7E2FB53EC1C2BFDF7DEFB89
:102BD00053EC1A2BFDF7DAFB53EC1B2BFDF7D9FB5B
:102BE00041EC100B9DED261B53EC102B8DED001BC3
:102BF00000959DED260B51EC100BFDF7CDFB9DEDE7
:102C0000000B41EC1A0B53EC102B9DED260B51ECF5
:102C1000100BFDF7BBFB9DED061B53EC112B2FE0BA
:102C2000000000604715F73FFE822B654715F73F10
:102C300044DF5DF80BAE543E00000000000040434E
:102C40008E9803007AB60B00020D0000300D0000D4
:102C50003A0C0000000000000000000000000840E6
:102C6000000000E009C7EE3FFD033ADC09C7EE3F74
:102C7000F5015B14E02F3EBEC60A0000800A00008A
:102C8000FDF78AFB53EC1A2BFDF7DFFA9DED060BDF
:102C900041EC1A0B53EC102B9DED000B51EC100B7B
:102CA000FDF77AFBCDE90C019DED0C0B51EC1A0BF5
:102CB00053EC102BFDF7C9FACDE902010C46AA49E5
:102CC0008C422FDB611A084318D19DED0C0B53EC9D
:102CD000102B9DED020B51EC100BFDF757FB41EC57
:102CE0001B0B9FEDA30B51EC1A0B53EC102BFDF7B4
:102CF000ACFA53EC1B2BFDF79FFD2DD2022000F008
:102D00008BFA00F059FA10EE901A18EE900A8DED39
:102D1000020B8DED008B61F31E0003909DED020B05
:102D2000FFF7BEBB944A24F00041914214D393496B
:102D3000214408437FF4EFAC9DED0C0B53EC102BBA
:102D40009DED020B51EC100BFDF720FB53EC1A2B01
:102D5000FDF772FD7FF6DFAC24F000408849894A18
:102D6000002601EB205182422BDA481C4FF48011DF
:102D700021FA00F02044844AC0F30A517A44A1F2B7
:102D8000FF3192ED000B814A8DED080BCA4020EA1D
:102D90000202C0F3130040F48010C1F1140120FAC4
:102DA00001F60992002CB8BF76429DED080B53EC5A
:102DB000102B9DED0C0B51EC100BFDF7E7FACDE954
:102DC0000C019DED0C0B51EC1A0B53EC102BFDF785
:102DD0003CFA9FED6F0B0890CDE9085153EC102B96
:102DE0009DED080B51EC100BFDF7D6FA41EC1B0BD7
:102DF0009FED690B53EC102B9DED080B51EC100B64
:102E0000FDF7CAFA9DED0C0B41EC1C0B53EC102B9B
:102E10009DED080B51EC100BFDF7B8FA53EC1A2B93
:102E2000FDF7B7FA9FED5E1B53EC112BFDF7B4FADB
:102E300053EC1C2BFDF709FA41EC1A0B51EC1B0B60
:102E400053EC1A2BFDF701FACDE902019DED020BBF
:102E500053EC1B2B51EC100BFDF798FA53EC1A2B8B
:102E6000FDF797FA9DED020B41EC1A0B53EC102B7A
:102E700051EC100BFDF790FACDE908014A489DEDA1
:102E8000080B0521784400F0E4F89DED081B51EC97
:102E9000100B53EC112BFDF77FFA9DED021B53EC49
:102EA000112BFDF776FACDE906019DED020B53ECEF
:102EB0001A2B51EC100BFDF76FFA53EC1A2BFDF7A0
:102EC000C4F99FED3B0B41EC1A0B53EC102B9DED1D
:102ED000060B51EC100BFDF759FA9DED060B41EC7A
:102EE0001B0B53EC102B9DED020B51EC100BFDF75F
:102EF00053FA53EC1B2BFDF7C1FA53EC1A2BFDF7D9
:102F000045FA9DED021B53EC112BFDF73FFA53ECF4
:102F1000192BFDF73EFACDE9020101EB0650011530
:102F20000029C8BF039015DC9DED020B324651EC21
:102F3000100BFDF76AFCFFF7E5F9042808BF00F065
:102F40004BF932469DED020B51EC100BFDF75DFC89
:102F5000CDE902019DED020B51EC180B53EC102B47
:102F6000FDF71AFAFFF73ABB00009040000000009E
:102F7000FE822B654715973C00CC904000346F3F94
:102F800001FCFFFF0000E03F08090000FFFF0F0009
:102F900000000000432EE63F396CA80C615C20BEA7
:102FA000EF39FAFE422EE63FD8070000000000008D
:102FB000000000000000004010B52DED028BB0EEC7
:102FC000408A18EE100AFDF7A5FB01EE100A18EE74
:102FD000100AB7EE000A78EE410A10F0004F4FF0E9
:102FE0007F4010EE901A12D0B1F13F4F24BF10EE87
:102FF000901AB0EB410F12D210EE901AB1F17C5F33
:103000001CDD10EE901AB0EB410F17D314E0B1F1B4
:103010003F4F07D910EE901AB0EB410F02D331EEBB
:10302000401A0BE010EE901AB1F17C5F06DB10EE57
:10303000901AB0EB410F01D331EE001A18EE100ACE
:10304000BDEC028B11EE101A61F31E0000EE100AA7
:1030500010BD70B504462DED028B4D1E00EBC50072
:10306000B0EE408AF0EE608A90ED000B35F006007D
:1030700017D053EC182B51EC100BFDF78DF941ECE8
:10308000100B6D1E04EBC50090ED001B51EC100BF6
:1030900053EC112BFDF7D9F841EC100B35F006007D
:1030A000E7D1022D36D0042D1CD0062D1CBFBDEC5F
:1030B000028B70BD53EC182B51EC100BFDF76CF923
:1030C00094ED0A1B53EC112BFDF7BFF853EC182BB2
:1030D000FDF762F994ED081B53EC112BFDF7B5F8E1
:1030E00041EC100B53EC182B51EC100BFDF754F97D
:1030F00094ED061B53EC112BFDF7A7F853EC182B9E
:10310000FDF74AF994ED040B53EC102BFDF79DF8F5
:1031100041EC100B53EC182B51EC100BFDF73CF964
:1031200094ED021B53EC112BFDF78FF853EC182B89
:10313000FDF732F994ED001B53EC112BFDF785F8E8
:10314000BDEC028B41EC100B70BD000000000000D4
:103150009FED070B10B553EC102B9FED070B51ECB7
:10316000100BFDF78BF941EC100B10BD00000000B7
:103170000000000000000000000000000000F03F20
:1031800010B553EC112B51EC100BFDF75EF841EC30
:10319000100B10BD000000009FED050B10B553ECA7
:1031A000102B51EC100BFDF769F941EC100B10BD21
:1031B00000000000000000009FED050B10B553EC6F
:1031C000102B51EC100BFDF7E7F841EC100B10BD84
:1031D00000000000000000709FED050B10B553ECDF
:1031E000102B51EC100BFDF7D7F841EC100B10BD74
:1031F000000000000000001002E008C8121F08C113
:10320000002AFAD170477047002001E001C1121F67
:10321000002AFBD170470000014908607047000098
:10322000180000202DE9FF4F89B09B460446002579
:1032300006E025280BD05A460B999047641C6D1C5C
:1032400020780028F5D10DB02846BDE8F08F002782
:10325000B8460122474900E0074314F8013F203BEC
:1032600002FA03F00842F7D120782E2819D114F879
:10327000010F47F004072A280ED06FF02F022078A4
:10328000A0F1300109290CD808EB880102EB4101BB
:1032900000EB0108641CF2E70A98641C50F8048BE8
:1032A0000A9020780028CED0642808D0692806D05B
:1032B00075281ED05A460B9990476D1C58E00A9904
:1032C0004FF00A0901C90A91002802DA40422D2173
:1032D00002E0390504D52B218DF82010012103E0EF
:1032E000F90704D02021F7E78A4608AE0DE0002157
:1032F000FAE70A994FF00A0901C90A91F7E7494626
:10330000FDF78AF9303106F8011D0028F7D1ADEB41
:10331000060000F12009780701D44FF00108C845E4
:1033200002DDA8EB090000E000208046002706E04F
:1033300008A85A46C05D0B9990476D1C7F1C5745E5
:10334000F6DB04E030205A460B9990476D1CB8F12B
:103350000001A8F10108F5DC05E016F8010B5A465A
:103360000B9990476D1CB9F10001A9F10109F4DC3A
:10337000641C65E70928010082B0CDE9000121F055
:10338000004001909DED000B02B051EC100B704716
:1033900013B54FF47A73012269460248FEF7E8FB41
:1033A00000981CBD640000202DED028BFDF7B2FDDE
:1033B000FEF738FDFEF748FCFEF7BEFCFEF710FDF9
:1033C000114C0120DFF8448000279FED118A114D38
:1033D0002070032604214046FEF724FC012808D172
:1033E000207830B1B0EE480A6421012000F0B5F831
:1033F000277028780228EDD1B0EE480A0121642018
:1034000000F0ABF82E70E5E7000000200018024045
:10341000CDCCCC3D5C10002070B52D4D2868C16826
:10342000C94389074FD46FF00201016129482A4C32
:103430000178491CC9B2017002293FD100220270F3
:103440002178012901D0032938D16068234B401C21
:1034500060609E68B04223D22149A82203EB80001D
:10346000096890ED051AB1FBF2F100EE101A1D4942
:10347000F8EE400A80EE810AF6EE000A20EE200AFD
:1034800010EE100A884202DB4FF6FF7006E0FFF7ED
:1034900093FDBCEEC00A10EE100A80B2A0600DE0F1
:1034A000012911D00D4822704FF47A611430FCF7D5
:1034B000C1FE002211460C48FEF780FD2868416AD3
:1034C000A2681144416370BD02202070F6E700003D
:1034D0001C000020010000205C100020A80000203B
:1034E0001000002000FF7F470004014000B52DEDD3
:1034F000048B83B041EC190BFDF7C8F941EC180BB4
:1035000018EE100A18EE901A8DED008B002818BFE7
:103510000120084320F00040C0F17F6000F1E0404E
:10352000C00F14D019EE101A19EE900A8DED009B01
:10353000002918BF0121084320F00040C0F17F603E
:1035400000F1E040C00F04BF0120FFF765FE51EC21
:10355000180B03B0BDEC048B00BD10B5FDF7E8F906
:10356000BDE81040AFF300801B4910B50020486350
:103570008863C8631848012134300170A0F6B47123
:1035800091ED050AB5EEC00AF1EE10FA03D14FF63F
:10359000FF7181600EE01149A8220968B1FBF2F1C8
:1035A00000EE901AF8EE600A80EE801ABCEEC10AB6
:1035B00080ED020A0A4909684A6A80681044486333
:1035C00000210748FEF7F2F90122BDE81040002172
:1035D0000448FEF7F3BC0000281000201000002073
:1035E0001C0000200004014000000000000000005A
:1035F0000102030406070809000000000102030499
:10360000000000000000F03F000000000000F83F54
:1036100000000000000000000000004003B8E23F8E
:10362000000000000000000006D0CF43EBFD4C3E40
:10363000033333333333E33FFFAB6FDBB66DDB3F35
:103640004D268F515555D53F01411DA96074D13F7D
:1036500065DBC9934A86CD3FEF4E454A287ECA3F77
:103660003E5555555555C53F93BDBE166CC166BFF9
:103670002CDE25AF6A56113FF16BD2C541BDBBBEF2
:10368000D0A4BE726937663E000000000000000052
:10369000B0360008000000201C000000F8310008CF
:1036A000CC3600081C0000204C1400000832000832
:1036B00000000000010000001000000000000000F9
:0C36C0000024F4000000000000000000E6
:040000050800018965
:00000001FF
